:020000040800F2
:1000000000040020C5010008CD010008CF01000850
:10001000D1010008D3010008D5010008000000004C
:10002000000000000000000000000000D7010008F0
:10003000D901000800000000DB010008DD01000814
:10004000DF010008DF010008DF010008DF01000810
:10005000DF010008DF010008DF010008DF01000800
:10006000DF010008DF010008DF010008DF010008F0
:10007000DF010008DF010008DF010008DF010008E0
:10008000DF010008DF010008DF010008DF010008D0
:10009000DF010008DF010008DF010008DF010008C0
:1000A000DF010008DF010008DF010008DF010008B0
:1000B000DF010008DF010008DF010008DF010008A0
:1000C000DF010008DF010008DF010008DF01000890
:1000D000DF010008DF010008DF010008DF01000880
:1000E000DF010008DF010008DF010008DF01000870
:1000F000DF010008DF010008DF010008DF01000860
:10010000DF010008DF010008DF010008DF0100084F
:10011000DF010008DF010008DF010008DF0100083F
:10012000DF010008DF010008DF010008DF0100082F
:10013000DF010008DF010008DF010008DF0100081F
:10014000DF010008DF010008DF010008DF0100080F
:10015000DF010008DF010008DF010008DF010008FF
:10016000DF010008DF010008DF010008DF010008EF
:10017000DF010008DF010008DF010008DF010008DF
:10018000DF010008DF010008DF010008DF010008CF
:10019000DF010008DF010008DF010008DF010008BF
:1001A000DF010008DF010008DF010008DFF810D0E0
:1001B00000F01AF800480047BD020008AFF30080C5
:1001C000000400200648804706480047FEE7FEE797
:1001D000FEE7FEE7FEE7FEE7FEE7FEE7FEE7FEE7F7
:1001E0000D020008AD010008064C074D06E0E0686E
:1001F00040F0010394E8070098471034AC42F6D36E
:10020000FFF7D8FFC8020008D802000830B5164C26
:10021000206840F4803020608103FDD5124B083304
:10022000196841F4805141F4A0521A601D1F2968D9
:1002300041F0190141F4A85141F4003141F0E0616D
:1002400041F48001296040F0807020608101FDD57B
:10025000064940F20570086042F002001860C0F3E1
:1002600081000228FDD130BD00380240003C024030
:1002700002E008C8121F08C1002AFAD1704770476F
:10028000002001E001C1121F002AFBD170470000CD
:100290000848016841F0200101600748016841F405
:1002A0008031016004481430016821F480710160DC
:1002B00070470000303802400014024000B5FFF7DC
:1002C000E7FF002000BD0000D80200080000002069
:0802D000000400008002000898
:04000005080001AD41
:00000001FF
